:020000040800F2
:1000000000000220950D0008A90C0008AF0C0008A4
:10001000B50C0008BB0C0008C10C00080000000073
:10002000000000000000000000000000B1580008BF
:10003000C70C000800000000F15A0008595B0008D6
:10004000E50D0008E50D0008E50D0008E50D0008C8
:10005000E50D0008E50D0008E50D0008E50D0008B8
:10006000E50D0008E50D0008E50D0008E50D0008A8
:10007000E50D0008E50D0008E50D0008E50D000898
:10008000E50D0008E50D0008E50D0008E50D000888
:10009000E50D0008E50D0008E50D0008E50D000878
:1000A000E50D0008E50D0008E50D0008E50D000868
:1000B000E50D0008E50D0008E50D0008E50D000858
:1000C000E50D0008E50D0008E50D0008E50D000848
:1000D000E50D0008E50D0008E50D0008E50D000838
:1000E000E50D0008E50D0008E50D0008E50D000828
:1000F000E50D0008E50D0008E50D0008E50D000818
:10010000E50D0008E50D0008E50D0008E50D000807
:10011000E50D0008E50D0008D50C0008E50D000808
:10012000E50D0008E50D0008E50D0008E50D0008E7
:10013000E50D0008E90C0008E50D0008E50D0008D4
:10014000E50D0008E50D0008E50D0008E50D0008C7
:10015000E50D0008E50D0008E50D0008E50D0008B7
:10016000E50D0008E50D0008E50D0008E50D0008A7
:10017000E50D0008E50D0008E50D00080000000091
:08018000E50D0008E50D000883
:1001900010B5054C237833B9044B13B10448AFF3C1
:1001A00000800123237010BDA0000020000000008B
:1001B000FCD8000808B5034B1BB103490348AFF353
:1001C000008008BD00000000A4000020FCD800084A
:1001D000034613F8012B002AFBD1181A0138704787
:1001E00053B94AB9002908BF00281CBF4FF0FF319E
:1001F0004FF0FF3000F072B9ADF1080C6DE904CE9C
:1002000000F006F8DDF804E0DDE9022304B07047F1
:100210002DE9F047089E04468846002B4BD18A42C0
:10022000154667D9B2FA82F24AB1C2F1200701FA43
:1002300002F320FA07F7954047EA030894404FEA93
:10024000154E230CB8FBFEF71FFA85FC0EFB178832
:1002500043EA084307FB0CF1994209D9EB1807F16F
:10026000FF3080F01B81994240F21881023F2B44FD
:100270005B1AA4B2B3FBFEF00EFB103344EA034456
:1002800000FB0CFCA44509D92C1900F1FF3380F0C8
:100290000781A44540F2048102382C4440EA07401B
:1002A000A4EB0C0400271EB1D4400023C6E9004390
:1002B0003946BDE8F0878B4209D9002E00F0EB806B
:1002C0000027C6E9000138463946BDE8F087B3FA91
:1002D00083F7002F47D18B4202D3824200F2FA808B
:1002E000841A61EB030301209846002EE0D0C6E992
:1002F0000048DDE702B9FFDEB2FA82F2002A40F0E0
:100300008F80491B4FEA154E1FFA85F80127B1FB74
:10031000FEFC230C0EFB1C1143EA014308FB0CF10D
:10032000994207D9EB180CF1FF3002D2994200F242
:10033000CD808446591AA3B2B1FBFEF00EFB101417
:1003400043EA044408FB00F8A04507D92C1900F142
:10035000FF3302D2A04500F2B6801846A4EB080491
:1003600040EA0C409FE7C7F1200CBB4022FA0CFE8C
:100370004EEA030E01FA07F420FA0CF521FA0CF309
:100380004FEA1E482543B3FBF8F92C0C08FB193340
:100390001FFA8EFA44EA034309FB0AF49C4202FA6C
:1003A00007F200FA07F10BD91EEB030309F1FF3046
:1003B00080F087809C4240F28480A9F10209734456
:1003C0001B1BADB2B3FBF8F008FB103345EA034446
:1003D00000FB0AFAA24508D91EEB040400F1FF3322
:1003E0006BD2A24569D90238744440EA0940A0FBA7
:1003F0000289A4EB0A044C45C2464B4654D351D063
:10040000002E69D0B1EB0A0564EB030404FA0CFC7E
:10041000FD40FC404CEA0505C6E90054002747E7CB
:10042000C2F1200320FA03F7954001FA02F021FA05
:1004300003F34FEA154E3843010CB3FBFEF71FFAE6
:1004400085F80EFB173341EA034107FB08F38B42A3
:1004500004FA02F407D9691807F1FF3C2FD28B4246
:100460002DD9023F2944CB1A81B2B3FBFEF00EFB1B
:10047000103341EA034100FB08F38B4207D96918A6
:1004800000F1FF3C17D28B4215D902382944C91A12
:1004900040EA07473BE73746304609E70746E7E6C5
:1004A0001846FBE64145ABD2B8EB020A69EB0E02F7
:1004B00001381346A4E76046E9E7184695E7674622
:1004C000D1E781467CE702382C4447E7ACF1020CC7
:1004D0002B442FE7384608E73746E9E6704700BF68
:1004E00080B485B000AFF860B9607A60FB68074AF5
:1004F0001A60BB68064A1A607B6880221A6000BFD7
:100500001437BD465DF8047B704700BFBC00002077
:1005100010010020B0B582B002AF00F065FC00F021
:100520005FF800F00FF900F0C5F800F04FF900F0A7
:100530006DF91D4A1D4B14461D460FCD20606160AC
:10054000A260E36028682061AB88AA79A382134681
:10055000A3751548FFF73CFE03469AB24FF47A7331
:100560001149134802F06BFD124B0093124B134AD2
:100570001349144806F070FB134B019302230093B8
:10058000002380221149124804F020F8114B0193F6
:1005900002230093002380220F49104804F016F82C
:1005A00003F012F8FEE700BF8849002014D90008C4
:1005B000404900200400002068DA000864DA0008DE
:1005C00060DA00085CDA0008100300202CD900086B
:1005D0000D0900081403002034D90008850900081B
:1005E00080B594B000AF07F12003302200211846F7
:1005F0000DF0D3F807F10C0300221A605A609A60DC
:10060000DA601A610023BB60284B1B6C274A43F059
:1006100080531364254B1B6C03F08053BB60BB6895
:1006200000237B60224B1B68214A43F48043136004
:100630001F4B1B6803F480437B607B6801233B6294
:100640004FF480337B620223BB634FF48003FB6370
:100650000C233B6478237B640223BB640423FB6488
:1006600007F12003184601F0F3FD0346002B01D0EB
:1006700000F0E2F90F23FB6002233B6100237B6162
:100680004FF4A053BB614FF48053FB6107F10C039F
:100690000421184602F04CF80346002B01D000F06C
:1006A000CBF900BF5037BD4680BD00BF00380240C7
:1006B0000070004080B500AF204B214A1A601F4BEC
:1006C00001225A601D4B4FF480429A601B4B4FF43D
:1006D0000062DA60194B01221A82184B5B69002212
:1006E0001A70164B5B69013380221A70134B5B69D9
:1006F0000233E1221A70114B5B69033300221A7036
:100700000E4B5B69043300221A700C4B5B69053396
:1007100000221A70094B00229A61084B0022DA610C
:10072000064B4FF400021A62044800F0A3FC034693
:10073000002B01D000F080F900BF80BD844A00206A
:100740000080024080B485B000AF0023FB601E4BE8
:100750001B6B1D4A43F0800313631B4B1B6B03F0A1
:100760008003FB60FB680023BB60174B1B6B164AC2
:1007700043F004031363144B1B6B03F00403BB60CF
:10078000BB6800237B60104B1B6B0F4A43F00103D7
:1007900013630D4B1B6B03F001037B607B6800232D
:1007A0003B60094B1B6B084A43F040031363064B45
:1007B0001B6B03F040033B603B6800BF1437BD4632
:1007C0005DF8047B704700BF0038024080B586B0FA
:1007D00000AF3B1D00221A605A609A60DA601A610D
:1007E000C0237B600223BB600023FB6003233B61CB
:1007F00008237B613B1D1946034801F08FFB00BFB6
:100800001837BD4680BD00BF0008024080B582B0E9
:1008100000AF00237B601C4B5B6C1B4A43F0200342
:100820005364194B5B6C03F020037B607B680023EF
:100830003B60154B1B6B144A43F004031363124BCC
:100840001B6B03F004033B603B68104B104A1A60BB
:100850000E4B4FF4E1325A600C4B00229A600B4B66
:100860000022DA60094B00221A61084B0C225A61FF
:10087000064802F099FB0346002B01D000F0DCF89B
:1008800000BF0837BD4680BD003802404049002007
:100890000014014080B58AB000AF0346FB71FB79BC
:1008A000002B2CD1184B1B68002B02D1164B0122B8
:1008B0001A6007F1180307F11C0207F1200107F184
:1008C000240006F0CDFA7B6A07F1080211461846AB
:1008D00007F008FC3B6A07F108021146184607F0CA
:1008E00001FCFB6907F108021146184607F0FAFB04
:1008F000BB6907F108021146184607F0F3FB00BF79
:100900002837BD4680BD00BF18030020B0B582B0B7
:1009100000AF7860164B1B78012BFBD1144B0022E3
:100920001A70144A144B15461C460FCC2860696097
:10093000AA60EB6007CC28616961AA6123782B77F4
:100940000C48FFF745FC03469AB24FF47A73094905
:100950000A4802F074FB064B01221A70084B4FF054
:1009600080521A60BFF34F8FBFF36F8FD2E700BF83
:1009700000000020884900203CD9000840490020A0
:1009800004ED00E0F0B583B000AF7860194B1B7840
:10099000012BFBD1174B00221A70174B174A144634
:1009A0009C4604F1200E654626460FCE28606960FD
:1009B000AA60EB6010340CF1100C7445F3D163465F
:1009C0002246106818600C48FFF702FC03469AB2F2
:1009D0004FF47A7308490A4802F031FB054B0122B3
:1009E0001A70084B4FF080521A60BFF34F8FBFF35D
:1009F0006F8FCBE700000020884900205CD90008F9
:100A00004049002004ED00E080B582B000AF78607E
:100A10007B681B68074A934201D100F007FA7B68A4
:100A20001B68044A934201D100F000FA00BF083766
:100A3000BD4680BD0010004080B400AF72B6FEE736
:100A400080B582B000AF00237B60124B5B6C114A13
:100A500043F4804353640F4B5B6C03F480437B602F
:100A60007B6800233B600B4B1B6C0A4A43F08053AE
:100A70001364084B1B6C03F080533B603B680022FF
:100A80000F216FF0010000F0CBFA00BF0837BD4620
:100A900080BD00BF0038024080B58EB000AF7860E6
:100AA00007F1240300221A605A609A60DA601A6122
:100AB0007B681B684A4A934240F08D8000233B626A
:100AC000484B1B6B474A43F000731363454B1B6B4A
:100AD00003F000733B623B6A0023FB61414B1B6BDD
:100AE000404A43F0806313633E4B1B6B03F080630B
:100AF000FB61FB690023BB613A4B1B6B394A43F036
:100B000000631363374B1B6B03F00063BB61BB696E
:100B100000237B61334B1B6B324A43F004031363A6
:100B2000304B1B6B03F004037B617B6900233B614B
:100B30002C4B1B6B2B4A43F001031363294B1B6B9C
:100B400003F001033B613B690023FB60254B1B6BFA
:100B5000244A43F040031363224B1B6B03F0400312
:100B6000FB60FB6832237B620223BB620023FB62D3
:100B700003233B630B237B6307F1240319461A48C5
:100B800001F0CCF986237B620223BB620023FB6267
:100B900003233B630B237B6307F1240319461348AC
:100BA00001F0BCF94FF4D0437B620223BB62002307
:100BB000FB6203233B630B237B6307F1240319468A
:100BC0000B4801F0ABF9002205213D2000F028FA86
:100BD0003D2000F041FA00BF3837BD4680BD00BF60
:100BE000008002400038024000080240000002403D
:100BF0000018024080B58CB000AF78600023FB6223
:100C00000023BB6200227968362000F009FA362002
:100C100000F022FA0023FB601F4B1B6C1E4A43F0BE
:100C2000100313641C4B1B6C03F01003FB60FB6888
:100C300007F1100207F114031146184601F044FFB2
:100C400001F01AFF03465B00FB62FB6A134AA2FB3A
:100C500003239B0C013BBB62114B124A1A60104BE1
:100C600040F2E732DA600E4ABB6A53600C4B002256
:100C70001A610B4B00229A60094801F057FF0346A6
:100C8000002B04D1064801F086FF034600E0012353
:100C900018463037BD4680BD0038024083DE1B4316
:100CA000CC4A00200010004080B400AFFEE780B4C2
:100CB00000AFFEE780B400AFFEE780B400AFFEE710
:100CC00080B400AFFEE780B400AF00BFBD465DF862
:100CD000047B704780B500AF024801F080FF00BF81
:100CE00080BD00BFCC4A002080B500AF024800F0B4
:100CF0005FFB00BF80BD00BF844A002080B586B086
:100D000000AF7860144A154BD31A7B617B693B6155
:100D1000134B1B68002B02D1114B124A1A60104B67
:100D20001A687B6813443A699A4207D20CF0D8FCDF
:100D300002460C2313604FF0FF3309E0084B1B6899
:100D4000FB60074B1A687B681344054A1360FB6815
:100D500018461837BD4680BD000002200004000080
:100D60001C030020884C002080B400AF084BD3F84F
:100D70008830074A43F47003C2F88830044B4FF0C0
:100D800000629A6000BFBD465DF8047B704700BFFB
:100D900000ED00E0DFF834D0002103E00C4B5B589D
:100DA000435004310B480C4B42189A42F6D30B4A7D
:100DB00002E0002342F8043B094B9A42F9D3FFF7C3
:100DC000D3FF0CF093FCFFF7A5FB70470000022057
:100DD000D4DA0008000000209C000020A0000020C1
:100DE000844C0020FEE7000080B500AF0E4B1B686E
:100DF0000D4A43F4007313600B4B1B680A4A43F41B
:100E000080631360084B1B68074A43F480731360C8
:100E1000032000F0FAF80020FFF7ECFEFFF710FEC9
:100E20000023184680BD00BF003C024080B400AFE4
:100E3000064B1B781A46064B1B681344044A136082
:100E400000BFBD465DF8047B704700BF1400002062
:100E50000C4B002080B400AF034B1B681846BD4606
:100E60005DF8047B704700BF0C4B002080B584B058
:100E700000AF7860FFF7EEFFB8607B68FB60FB684F
:100E8000B3F1FF3F05D0094B1B781A46FB681344AA
:100E9000FB6000BFFFF7DEFF0246BB68D31AFA68AB
:100EA0009A42F7D800BF1037BD4680BD140000201D
:100EB00080B485B000AF78607B6803F00703FB6007
:100EC0000C4BDB68BB60BA684FF6FF031340BB6096
:100ED000FB681A02BB68134343F0BF6343F400335B
:100EE000BB60044ABB68D36000BF1437BD465DF8E1
:100EF000047B704700ED00E080B400AF044BDB687A
:100F00001B0A03F007031846BD465DF8047B7047D3
:100F100000ED00E080B483B000AF0346FB7197F9A9
:100F20000730002B0BDBFB7903F01F02074997F911
:100F300007305B09012000FA02F241F8232000BFCC
:100F40000C37BD465DF8047B704700BF00E100E050
:100F500080B483B000AF03463960FB7197F9073066
:100F6000002B0ADB3B68DAB20C4997F90730120113
:100F7000D2B20B4483F800230AE03B68DAB2084996
:100F8000FB7903F00F03043B1201D2B20B441A7633
:100F900000BF0C37BD465DF8047B704700E100E000
:100FA00000ED00E080B489B000AFF860B9607A600D
:100FB000FB6803F00703FB61FB69C3F10703042B24
:100FC00028BF0423BB61FB690433062B02D9FB69EC
:100FD000033B00E000237B614FF0FF32BB6902FA64
:100FE00003F3DA43BB681A407B699A404FF0FF3144
:100FF0007B6901FA03F3D9437B680B40134318461E
:101000002437BD465DF8047B704780B582B000AFE1
:1010100078607868FFF74CFF00BF0837BD4680BD99
:1010200080B586B000AF0346B9607A60FB730023D9
:101030007B61FFF761FF78617A68B9687869FFF7CB
:10104000B1FF024697F90F3011461846FFF780FFAF
:1010500000BF1837BD4680BD80B582B000AF0346E3
:10106000FB7197F907301846FFF754FF00BF0837A8
:10107000BD4680BD80B588B000AF78600023FB61BD
:101080000023FB60AA4BBB6100237B6100233B6113
:101090007B68002B01D1012385E17B6893F8443004
:1010A000DBB2002B06D17B68002283F845207868EC
:1010B000FFF7F2FC0023BB609E4B5B6C9D4A43F440
:1010C000804353649B4B5B6C03F48043BB60BB6801
:1010D000994B5B68984A23F400035360964B5A6817
:1010E0007B681B6A944913434B607B681B6803F55C
:1010F00080531A687B681B6842F0010203F5805335
:101100001A60FFF7A7FE786111E0FFF7A3FE024621
:101110007B69D31AB3F5FA7F09D97B68032283F878
:1011200044207B68002283F8452003233BE17B6851
:101130001B6803F580531B6803F00103002BE4D107
:101140007B681B681B69FB61FB6923F01C03FB6167
:1011500001F086FCB861BB69784A934208D9BB6943
:10116000774A934204D8FB6943F00803FB6127E008
:10117000BB69734A934208D9BB69724A934204D847
:10118000FB6943F00C03FB611AE0BB696D4A9342B3
:1011900003D9BB696C4A934211D9BB696A4A93422D
:1011A00008D9BB69694A934204D8FB6943F0040338
:1011B000FB6105E0FB6943F01003FB6100E000BF49
:1011C0007B681B68FA691A614FF400420021786855
:1011D00000F0C7F90346002B0BD001233B613969AE
:1011E000786800F07DFB7B68012283F844200123AE
:1011F000D9E0FF20FFF73AFE7B685B68002B00F028
:10120000A780FFF727FE786107F10C031A4601213A
:10121000786800F03EF9FFF71DFE02467B69D31A9D
:1012200041F2883293420FD901233B6139697868D2
:1012300000F056FB7B68012283F844207B68002283
:1012400083F845200323AEE0FB6803F00403002B82
:10125000DAD04FF480520021786800F082F903461A
:10126000002B0BD001233B613969786800F038FB13
:101270007B68012283F84420012394E0FFF7EAFD14
:10128000786107F10C031A460121786800F001F932
:10129000FFF7E0FD02467B69D31A41F288329342A0
:1012A0000FD901233B613969786800F019FB7B682D
:1012B000012283F844207B68002283F84520032321
:1012C00071E0FB6803F02003002BDAD007F10C0378
:1012D0001A461F21786800F0DCF80346002B0BD07B
:1012E00001233B613969786800F0FAFA7B680122D2
:1012F00083F84420012356E0FB6803F01003002B21
:1013000004D07B684FF40062DA6002E07B68002260
:10131000DA60FB6803F00403002B03D07B68002233
:101320009A6037E07B684FF480429A6032E000BFF9
:10133000008793030038024000380140FF2C310140
:10134000BF0E1602FF869303FFE0F5057FD1F0087C
:101350007B68DB68DB089AB27B689B685B089BB2A2
:1013600013439BB21A460021786800F0FAF803464E
:10137000002B0BD001233B613969786800F0B0FA8B
:101380007B68012283F8442001230CE040F6FF70C3
:10139000FFF76CFD3969786800F0A2FA7B680122DA
:1013A00083F84420002318462037BD4680BD00BF87
:1013B00080B582B000AF78607B681B6803F580530E
:1013C00014331B6803F04003402B12D178680BF0F4
:1013D000B9FC7B681B6803F58053143340221A6004
:1013E0007B68012283F844207B68002283F8452033
:1013F0001BE07B681B6803F5805314331B6803F004
:101400000103012B11D178680BF0CAFC7B681B68C3
:1014100003F58053143301221A607B68012283F89C
:1014200044207B68002283F845207B681B6803F515
:10143000805314334FF480321A607B681B6803F5C5
:10144000805314331B6803F40043B3F5004F12D1EB
:10145000786800F014F87B681B6803F58053143338
:101460004FF400421A607B68012283F844207B68B5
:10147000002283F8452000BF0837BD4680BD80B4F8
:1014800083B000AF786000BF0C37BD465DF8047BC9
:10149000704780B586B000AFF8600B467A607B81FC
:1014A00000237B6100233B61FB6893F84430DBB28F
:1014B000822B01D1022350E0FB68822283F8442072
:1014C000FB681B681B697B617B6903F01C037B6104
:1014D000FB681B8ADB029BB27A6913437B617B89C1
:1014E0009B0103F4F8637A6913437B617B6923F002
:1014F00002037B617B6943F001037B61FB681B682E
:101500007A691A61FFF7A6FC386115E0FFF7A2FCC3
:1015100002463B69D31AB3F5803F09D3FB68012229
:1015200083F84420FB68002283F84520032314E05D
:10153000FB681B681B697B617B6903F00103002B5F
:10154000E4D1FB681B685B699BB21A467B681A6032
:10155000FB68012283F84420002318461837BD4653
:1015600080BD80B586B000AFF8600B467A607B81A5
:1015700000237B6100233B61FB6893F84430DBB2BE
:10158000422B01D102234EE0FB68422283F8442023
:10159000FB681B681B697B617B6903F01C037B6133
:1015A000FB681B8ADB029BB27A6913437B617B89F0
:1015B0009B0103F4F8637A6913437B617B6943F011
:1015C00002037B617B6943F001037B617B689AB214
:1015D000FB681B685A61FB681B687A691A61FFF730
:1015E00039FC386115E0FFF735FC02463B69D31A38
:1015F000B3F5803F09D3FB68012283F84420FB68E0
:10160000002283F8452003230DE0FB681B681B695B
:101610007B617B6903F00103002BE4D1FB680122AD
:1016200083F84420002318461837BD4680BD80B596
:1016300082B000AF78607B6893F84530012B01D110
:1016400002231FE07B68012283F845207B68022289
:1016500083F84420786800F045FB786800F07CFB54
:10166000786800F013FC786800F0B0FB786800F050
:10167000DDFB7B68012283F844207B68002283F82D
:101680004520002318460837BD4680BD80B582B08E
:1016900000AF78607B6893F84530012B01D10223BD
:1016A0001FE07B68012283F845207B68022283F8D3
:1016B0004420786800F0A2FB786800F0CFFB7868DF
:1016C00000F067FB786800F0E1FB786800F027FB2A
:1016D0007B68012283F844207B68002283F8452040
:1016E000002318460837BD4680BD000080B584B091
:1016F00000AF786039600023FB607B6893F8453069
:10170000012B01D10223E4E07B68012283F845200C
:101710007B68022283F844203B68002B00F0B180F4
:101720007B681B681B68FB60FA686C4B1340FB60AE
:101730003B681A683B685B681A433B689B681A43BE
:101740003B68DB681A437B689B681A433B681B69EC
:101750001A433B685B691A437B68DB681A433B6842
:101760009B691A433B68DB691A433B681B6A1A434F
:101770003B685B6A1A433B689B6A1343FA681343EE
:10178000FB607B681B68FA681A607B681B681B68D3
:10179000FB600120FFF76AFB7B681B68FA681A6030
:1017A0003B68DA6A3B681B6B1A433B685B6B1A4306
:1017B0003B689B6B1A433B68DB6B1A433B681B6CB3
:1017C0001A433B685B6C42EA03013B689A6C7B6896
:1017D0001B680A435A607B681B685B68FB600120DA
:1017E000FFF744FB7B681B68FA685A607B681B68DC
:1017F0003A68D26C9A607B681B683A68126DDA604E
:101800007B681B689B69FB60FA684FF64173134065
:10181000FB603B685B6D1A043B689B6D1A433B6839
:10182000DB6D1A433B681B6E1A433B685B6E1A43C1
:101830003B689B6E1343FA681343FB607B681B682D
:10184000FA689A617B681B689B69FB600120FFF75F
:101850000DFB7B681B68FA689A613B68D96E3B6830
:101860001A6F7B681B680A43DA617B681B68DB6957
:10187000FB600120FFF7FAFA7B681B68FA68DA61FF
:101880001EE07B681B681B68FB60FB6823F49043C9
:10189000FB607B689A687B68DB681343FA681343D4
:1018A000FB607B681B68FA681A607B681B681B68B2
:1018B000FB600120FFF7DAFA7B681B68FA681A60A0
:1018C0007B68012283F844207B68002283F845204E
:1018D000002318461037BD4680BD00BF0F8120FF92
:1018E00080B5B0B000AF786039600023C7F8BC3075
:1018F0003B68002B07D07B684FF40062DA607B689E
:101900004FF480429A600023BB640023FB640023F1
:101910003B6500237B650023BB650023FB657B687B
:10192000DB69002B03D14FF480633B6601E00023A9
:101930003B664FF400737B660023BB660023FB66A7
:1019400000233B6700237B670023BB674023FB67C3
:101950000023C7F880300023C7F884300023C7F87D
:1019600088300023C7F88C300023C7F8903000235C
:10197000C7F894300023C7F898300023C7F89C308C
:101980008023C7F8A0300023C7F8A4300023C7F88D
:10199000A8300023C7F8AC300023C7F8B0300023CC
:1019A000C7F8B4300023C7F8B8307B681B681B68E1
:1019B000C7F8BC30D7F8BC20AC4B1340C7F8BC30DC
:1019C000BA6CFB6C1A433B6D1A437B6D1A437B6800
:1019D0009B681A43BB6D1A43FB6D1A437B68DB6837
:1019E0001A433B6E1A437B6E1A43BB6E1A43FB6E5F
:1019F0001A433B6F1343D7F8BC201343C7F8BC30DE
:101A00007B681B68D7F8BC201A607B681B681B6862
:101A1000C7F8BC300120FFF729FA7B681B68D7F8AC
:101A2000BC201A607A6FBB6F1A43FB6F1A43D7F85A
:101A300080301A43D7F884301A43D7F888301A43D5
:101A4000D7F88C3042EA0301D7F890207B681B68F6
:101A50000A435A607B681B685B68C7F8BC3001208A
:101A6000FFF704FA7B681B68D7F8BC205A607B68D4
:101A70001B68D7F894209A607B681B68D7F8982079
:101A8000DA607B681B689B69C7F8BC30D7F8BC205C
:101A90004FF641731340C7F8BC30D7F89C301A0496
:101AA000D7F8A0301A43D7F8A4301A43D7F8A83093
:101AB0001A43D7F8AC301A43D7F8B0301343D7F8ED
:101AC000BC201343C7F8BC307B681B68D7F8BC2028
:101AD0009A617B681B689B69C7F8BC300120FFF7DF
:101AE000C5F97B681B68D7F8BC209A61D7F8B41099
:101AF000D7F8B8207B681B680A43DA617B681B68EB
:101B0000DB69C7F8BC300120FFF7B0F97B681B68C0
:101B1000D7F8BC20DA610023BB604FF00073FB6094
:101B200000233B614FF400137B610023BB61002362
:101B3000FB6100233B6200237B620423BB624FF006
:101B40000073FB624FF480333B634FF480037B638D
:101B50004FF40053BB638023FB6300233B640023EB
:101B60007B647B681B6803F5805318331B68C7F8D8
:101B7000BC30D7F8BC203E4B1340C7F8BC30BA6825
:101B8000FB681A433B691A437B691A43BB691A43D2
:101B9000FB691A433B6A1A437B6A1A43BB6A1343C5
:101BA000D7F8BC201343C7F8BC307B681B6803F52B
:101BB00080531833D7F8BC201A607B681B6803F584
:101BC000805318331B68C7F8BC300120FFF74EF96B
:101BD0007B681B6803F580531833D7F8BC201A6064
:101BE000FA6A3B6B1A437B6B1A43BB6B1A43FB6B62
:101BF0001A433B6C9B001A437B6C1A437B681B683F
:101C000042F4000203F580531A607B681B6803F5F9
:101C100080531B68C7F8BC300120FFF727F97B68A9
:101C20001B6803F58053D7F8BC201A607B689B695A
:101C3000012B0FD17B681B6803F580531C331A6896
:101C40007B681B6842F4803242F0400203F5805307
:101C50001C331A607B685B691A460021786800F0C3
:101C600009F800BFC037BD4680BD00BF0F8120FF0F
:101C7000233FDEF880B487B000AFF860B9607A60C7
:101C80007B6805331B781B027A6804321278134391
:101C90007B61BA68114B13441A467B6913607B68F9
:101CA00003331B781A067B6802331B781B041A4324
:101CB0007B6801331B781B0213437A681278134345
:101CC0007B61BA68064B13441A467B69136000BFF8
:101CD0001C37BD465DF8047B704700BF4080024062
:101CE0004480024080B584B000AF78600023FB6080
:101CF0007B681B681A687B681B6842F008021A60E0
:101D00007B681B681B68FB60012000F0E9F87B68BA
:101D10001B68FA681A6000BF1037BD4680BD80B5E9
:101D200084B000AF78600023FB607B681B681A6892
:101D30007B681B6822F008021A607B681B681B68BE
:101D4000FB60012000F0CCF87B681B68FA681A6021
:101D500000BF1037BD4680BD80B584B000AF78604D
:101D60000023FB607B681B681A687B681B6842F075
:101D700004021A607B681B681B68FB60012000F08E
:101D8000AFF87B681B68FA681A6000BF1037BD4661
:101D900080BD80B584B000AF78600023FB607B68B5
:101DA0001B681A687B681B6822F004021A607B6853
:101DB0001B681B68FB60012000F092F87B681B68C1
:101DC000FA681A6000BF1037BD4680BD80B483B08A
:101DD00000AF78607B681B6803F5805318331A687E
:101DE0007B681B6842F4005203F5805318331A6075
:101DF00000BF0C37BD465DF8047B704780B483B0EC
:101E000000AF78607B681B6803F5805318331A684D
:101E10007B681B6822F4005203F5805318331A6064
:101E200000BF0C37BD465DF8047B704780B483B0BB
:101E300000AF78607B681B6803F5805318331A681D
:101E40007B681B6842F0020203F5805318331A6066
:101E500000BF0C37BD465DF8047B704780B483B08B
:101E600000AF78607B681B6803F5805318331A68ED
:101E70007B681B6822F0020203F5805318331A6056
:101E800000BF0C37BD465DF8047B704780B584B059
:101E900000AF78600023FB607B681B6803F580530C
:101EA00018331A687B681B6842F4801203F580536C
:101EB00018331A607B681B6803F5805318331B685E
:101EC000FB60012000F00CF87B681B68FA6803F5E2
:101ED000805318331A6000BF1037BD4680BD000024
:101EE00080B485B000AF78600A4B1B680A4AA2FB39
:101EF00003235B0A7A6802FB03F3FB6000BFFB6805
:101F00005A1EFA60002BF9D100BF1437BD465DF8A8
:101F1000047B70470C000020D34D621080B489B060
:101F200000AF7860396000237B6100233B610023B0
:101F3000BB610023FB616BE10122FB6902FA03F341
:101F40007B613B681B687A6913403B613A697B6936
:101F50009A4240F05A813B685B68012B0BD03B688A
:101F60005B68022B07D03B685B68112B03D03B6892
:101F70005B68122B30D17B689B68BB61FB695B009F
:101F8000032202FA03F3DB43BA691340BB613B68E7
:101F9000DA68FB695B0002FA03F3BA691343BB61B9
:101FA0007B68BA699A607B685B68BB610122FB69E8
:101FB00002FA03F3DB43BA691340BB613B685B6819
:101FC0001B0903F00102FB6902FA03F3BA69134328
:101FD000BB617B68BA695A607B68DB68BB61FB697F
:101FE0005B00032202FA03F3DB43BA691340BB61CF
:101FF0003B689A68FB695B0002FA03F3BA69134312
:10200000BB617B68BA69DA603B685B68022B03D00E
:102010003B685B68122B23D1FB69DA087B680832C6
:1020200053F82230BB61FB6903F007039B000F22CA
:1020300002FA03F3DB43BA691340BB613B681A69D8
:10204000FB6903F007039B0002FA03F3BA69134329
:10205000BB61FB69DA087B680832B96943F8221072
:102060007B681B68BB61FB695B00032202FA03F318
:10207000DB43BA691340BB613B685B6803F0030252
:10208000FB695B0002FA03F3BA691343BB617B6827
:10209000BA691A603B685B6803F08053002B00F05C
:1020A000B4800023FB605F4B5B6C5E4A43F480436B
:1020B00053645C4B5B6C03F48043FB60FB685A4ADF
:1020C000FB699B08023352F82330BB61FB6903F0C4
:1020D00003039B000F2202FA03F3DB43BA691340A8
:1020E000BB617B68514A93422BD07B68504A934234
:1020F00025D07B684F4A93421FD07B684E4A93425B
:1021000019D07B684D4A934213D07B684C4A934266
:102110000DD07B684B4A934207D07B684A4A934272
:1021200001D107230EE008230CE006230AE0052373
:1021300008E0042306E0032304E0022302E0012375
:1021400000E00023FA6902F0030292009340BA69AA
:102150001343BB613449FB699B080233BA6941F8F8
:1021600023203A4B1B68BB613B69DB43BA691340D0
:10217000BB613B685B6803F48033002B03D0BA6912
:102180003B691343BB61314ABB6913602F4B5B68EA
:10219000BB613B69DB43BA691340BB613B685B6869
:1021A00003F40033002B03D0BA693B691343BB61CE
:1021B000264ABB695360254B9B68BB613B69DB4387
:1021C000BA691340BB613B685B6803F48013002B62
:1021D00003D0BA693B691343BB611C4ABB69936076
:1021E0001A4BDB68BB613B69DB43BA691340BB61D7
:1021F0003B685B6803F40013002B03D0BA693B69AA
:102200001343BB61114ABB69D360FB690133FB61B6
:10221000FB690F2B7FF690AE00BF2437BD465DF8FB
:10222000047B704700380240003801400000024043
:102230000004024000080240000C0240001002406E
:102240000014024000180240001C0240003C014003
:1022500080B586B000AF78607B68002B01D1012388
:102260005BE27B681B6803F00103002B75D0A34B76
:102270009B6803F00C03042B0CD0A04B9B6803F06D
:102280000C03082B12D19D4B5B6803F48003B3F55C
:10229000800F0BD1994B1B6803F40033002B5BD0EC
:1022A0007B685B68002B57D1012336E27B685B6853
:1022B000B3F5803F06D1914B1B68904A43F48033BD
:1022C00013601DE07B685B68B3F5A02F0CD18B4BCE
:1022D0001B688A4A43F480231360884B1B68874A33
:1022E00043F4803313600BE0844B1B68834A23F470
:1022F00080331360814B1B68804A23F48023136072
:102300007B685B68002B13D0FEF7A4FD386108E002
:10231000FEF7A0FD02463B69D31A642B01D90323C3
:10232000FBE1764B1B6803F40033002BF0D014E084
:10233000FEF790FD386108E0FEF78CFD02463B6930
:10234000D31A642B01D90323E7E16C4B1B6803F418
:102350000033002BF0D100E000BF7B681B6803F066
:102360000203002B63D0654B9B6803F00C03002B2A
:102370000BD0624B9B6803F00C03082B1CD15F4B06
:102380005B6803F48003002B16D15C4B1B6803F0E1
:102390000203002B05D07B68DB68012B01D00123F1
:1023A000BBE1564B1B6823F0F8027B681B69DB001E
:1023B000524913430B603AE07B68DB68002B20D066
:1023C0004F4B01221A60FEF745FD386108E0FEF729
:1023D00041FD02463B69D31A022B01D903239CE13C
:1023E000464B1B6803F00203002BF0D0434B1B68E5
:1023F00023F0F8027B681B69DB00404913430B6044
:1024000015E03F4B00221A60FEF724FD386108E01A
:10241000FEF720FD02463B69D31A022B01D90323A4
:102420007BE1364B1B6803F00203002BF0D17B6885
:102430001B6803F00803002B30D07B685B69002B1E
:1024400016D0304B01221A60FEF704FD386108E017
:10245000FEF700FD02463B69D31A022B01D9032384
:102460005BE1264B5B6F03F00203002BF0D015E01D
:10247000244B00221A60FEF7EDFC386108E0FEF7FD
:10248000E9FC02463B69D31A022B01D9032344E13C
:102490001A4B5B6F03F00203002BF0D17B681B68C3
:1024A00003F00403002B00F0A0800023FB75134B06
:1024B0001B6C03F08053002B0FD10023BB600F4B2C
:1024C0001B6C0E4A43F0805313640C4B1B6C03F0DF
:1024D0008053BB60BB680123FB750B4B1B6803F487
:1024E0008073002B21D1084B1B68074A43F480738B
:1024F0001360FEF7AFFC386111E000BF0038024006
:1025000000004742800E474200700040FEF7A2FCE8
:1025100002463B69D31A022B01D90323FDE0814B0C
:102520001B6803F48073002BF0D07B689B68012B41
:1025300006D17D4B1B6F7C4A43F0010313671CE0FF
:102540007B689B68052B0CD1774B1B6F764A43F059
:1025500004031367744B1B6F734A43F00103136743
:102560000BE0714B1B6F704A23F0010313676E4B36
:102570001B6F6D4A23F0040313677B689B68002B75
:1025800015D0FEF767FC38610AE0FEF763FC0246EF
:102590003B69D31A41F28832934201D90323BCE04C
:1025A000614B1B6F03F00203002BEED014E0FEF72B
:1025B00051FC38610AE0FEF74DFC02463B69D31A34
:1025C00041F28832934201D90323A6E0564B1B6F98
:1025D00003F00203002BEED1FB7D012B05D1524B02
:1025E0001B6C514A23F0805313647B689B69002B5A
:1025F00000F092804C4B9B6803F00C03082B5CD0DE
:102600007B689B69022B41D1484B00221A60FEF780
:1026100021FC386108E0FEF71DFC02463B69D31A35
:10262000022B01D9032378E03F4B1B6803F00073B2
:10263000002BF0D17B68DA697B681B6A1A437B68E0
:102640005B6A9B011A437B689B6A5B08013B1B0426
:102650001A437B68DB6A1B06334913434B60334BD9
:1026600001221A60FEF7F6FB386108E0FEF7F2FB84
:1026700002463B69D31A022B01D903234DE02A4BB2
:102680001B6803F00073002BF0D045E0274B0022BD
:102690001A60FEF7DFFB386108E0FEF7DBFB02465D
:1026A0003B69D31A022B01D9032336E01E4B1B686A
:1026B00003F00073002BF0D12EE07B689B69012BA7
:1026C00001D1012329E0184B5B68FB60FB6803F430
:1026D00080027B68DB699A421CD1FB6803F03F02F1
:1026E0007B681B6A9A4215D1FA6847F6C07313409B
:1026F0007A68526A93420DD1FB6803F440327B68DA
:102700009B6A9A4206D1FB6803F070627B68DB6AC1
:102710009A4201D0012300E0002318461837BD4635
:1027200080BD00BF0070004000380240600047429A
:1027300080B584B000AF786039607B68002B01D130
:102740000123CCE0684B1B6803F00F033A689A4200
:102750000CD9654B3A68D2B21A70634B1B6803F010
:102760000F033A689A4201D00123B8E07B681B68E6
:1027700003F00203002B20D07B681B6803F00403E6
:10278000002B05D0594B9B68584A43F4E0539360A3
:102790007B681B6803F00803002B05D0534B9B6834
:1027A000524A43F460439360504B9B6823F0F0021D
:1027B0007B689B684D4913438B607B681B6803F003
:1027C0000103002B44D07B685B68012B07D1474B8A
:1027D0001B6803F40033002B19D101237FE07B68D1
:1027E0005B68022B03D07B685B68032B07D13F4BF0
:1027F0001B6803F00073002B09D101236FE03B4BF2
:102800001B6803F00203002B01D1012367E0374B63
:102810009B6823F003027B685B68344913438B6039
:10282000FEF718FBF8600AE0FEF714FB0246FB68AF
:10283000D31A41F28832934201D903234FE02B4B44
:102840009B6803F00C027B685B689B009A42EBD1AB
:10285000254B1B6803F00F033A689A420CD2224BB7
:102860003A68D2B21A70204B1B6803F00F033A6823
:102870009A4201D0012332E07B681B6803F0040315
:10288000002B08D0194B9B6823F4E0527B68DB686F
:10289000164913438B607B681B6803F00803002B09
:1028A00009D0124B9B6823F460427B681B69DB00F4
:1028B0000E4913438B6000F021F801460B4B9B68D7
:1028C0001B0903F00F030A4AD35C21FA03F3094AF8
:1028D0001360094B1B681846FEF78CF90023184655
:1028E0001037BD4680BD00BF003C024000380240AA
:1028F0006CDA00080C00002010000020F0B585B054
:1029000000AF00237B600023FB6000233B600023BB
:10291000BB60504B9B6803F00C03042B07D0082BC3
:1029200008D0002B40F08D804B4BBB608CE04B4BB4
:10293000BB6089E0474B5B6803F03F037B60454B1E
:102940005B6803F48003002B23D0424B5B689B0938
:102950004FF0000440F2FF114FF0000203EA0105BE
:1029600004EA02063D4A02FB06F1002202FB05F2E0
:102970000A443A49A5FB0101531819467B684FF0F8
:1029800000041A462346FDF72BFC03460C46FB6069
:1029900049E0304B5B689B094FF0000440F2FF11A7
:1029A0004FF0000203EA010504EA02062946324616
:1029B0004FF000034FF00004540144EAD1644B018E
:1029C00019462246491B62EB06024FF000034FF006
:1029D0000004940144EA91648B015B1A64EB0204E5
:1029E0004FF000014FF00002E20042EA5372D900BA
:1029F0000B4614465B1944EB06044FF000014FF000
:102A00000002A20242EA935299020B46144618466B
:102A100021467B684FF000041A462346FDF7E0FB91
:102A200003460C46FB600B4B5B681B0C03F0030377
:102A300001335B003B60FA683B68B2FBF3F3BB60B9
:102A400002E0054BBB6000BFBB6818461437BD46AB
:102A5000F0BD00BF003802400024F40040787D0142
:102A600080B400AF034B1B681846BD465DF8047B7D
:102A7000704700BF0C00002080B500AFFFF7F0FFEB
:102A80000146054B9B689B0A03F00703034AD35C8E
:102A900021FA03F3184680BD003802407CDA0008B2
:102AA00080B500AFFFF7DCFF0146054B9B685B0B71
:102AB00003F00703034AD35C21FA03F3184680BDF1
:102AC000003802407CDA000880B483B000AF786040
:102AD00039607B680F221A60124B9B6803F0030277
:102AE0007B685A600F4B9B6803F0F0027B689A602A
:102AF0000C4B9B6803F4E0527B68DA60094B9B68DF
:102B0000DB0803F4E0527B681A61074B1B6803F093
:102B10000F023B681A6000BF0C37BD465DF8047BAE
:102B2000704700BF00380240003C024080B582B0D0
:102B300000AF78607B68002B01D101231DE07B682A
:102B400093F83D30DBB2002B06D17B68002283F87E
:102B50003C20786800F015F87B68022283F83D205D
:102B60007B681A687B6804331946104600F068F9E0
:102B70007B68012283F83D20002318460837BD46B4
:102B800080BD80B483B000AF786000BF0C37BD4615
:102B90005DF8047B704780B485B000AF78607B68D7
:102BA0001B68DA687B681B6842F00102DA607B68A8
:102BB0001B689B6803F00703FB60FB68062B07D0CC
:102BC0007B681B681A687B681B6842F001021A6008
:102BD000002318461437BD465DF8047B704780B566
:102BE00082B000AF78607B681B681B6903F002034A
:102BF000022B22D17B681B68DB6803F00203022BE7
:102C00001BD17B681B686FF002021A617B6801228E
:102C10001A777B681B689B6903F00303002B03D0C2
:102C2000786800F0EEF805E0786800F0E0F8786881
:102C300000F0F1F87B6800221A777B681B681B693B
:102C400003F00403042B22D17B681B68DB6803F0CC
:102C50000403042B1BD17B681B686FF004021A610C
:102C60007B6802221A777B681B689B6903F44073B8
:102C7000002B03D0786800F0C4F805E0786800F015
:102C8000B6F8786800F0C7F87B6800221A777B688E
:102C90001B681B6903F00803082B22D17B681B68A3
:102CA000DB6803F00803082B1BD17B681B686FF0FF
:102CB00008021A617B6804221A777B681B68DB694B
:102CC00003F00303002B03D0786800F09AF805E0C6
:102CD000786800F08CF8786800F09DF87B68002236
:102CE0001A777B681B681B6903F01003102B22D135
:102CF0007B681B68DB6803F01003102B1BD17B681B
:102D00001B686FF010021A617B6808221A777B68D3
:102D10001B68DB6903F44073002B03D0786800F074
:102D200070F805E0786800F062F8786800F073F8F1
:102D30007B6800221A777B681B681B6903F001031C
:102D4000012B0ED17B681B68DB6803F00103012BAC
:102D500007D17B681B686FF001021A617868FDF784
:102D600053FE7B681B681B6903F08003802B0ED128
:102D70007B681B68DB6803F08003802B07D17B68CE
:102D80001B686FF080021A61786800F003F97B68B5
:102D90001B681B6903F04003402B0ED17B681B6846
:102DA000DB6803F04003402B07D17B681B686FF0A2
:102DB00040021A61786800F038F87B681B681B696C
:102DC00003F02003202B0ED17B681B68DB6803F027
:102DD0002003202B07D17B681B686FF020021A614B
:102DE000786800F0CDF800BF0837BD4680BD80B4DC
:102DF00083B000AF786000BF0C37BD465DF8047B40
:102E0000704780B483B000AF786000BF0C37BD4618
:102E10005DF8047B704780B483B000AF786000BF7A
:102E20000C37BD465DF8047B704780B483B000AFBB
:102E3000786000BF0C37BD465DF8047B704700002A
:102E400080B485B000AF786039607B681B68FB6038
:102E50007B68404A934213D07B68B3F1804F0FD018
:102E60007B683D4A93420BD07B683C4A934207D033
:102E70007B683B4A934203D07B683A4A934208D12D
:102E8000FB6823F07003FB603B685B68FA681343E0
:102E9000FB607B682F4A93422BD07B68B3F1804F55
:102EA00027D07B682C4A934223D07B682B4A9342DD
:102EB0001FD07B682A4A93421BD07B68294A9342E1
:102EC00017D07B68284A934213D07B68274A9342E5
:102ED0000FD07B68264A93420BD07B68254A9342E9
:102EE00007D07B68244A934203D07B68234A9342ED
:102EF00008D1FB6823F44073FB603B68DB68FA6829
:102F00001343FB60FB6823F080023B685B6913435B
:102F1000FB607B68FA681A603B689A687B68DA62D3
:102F20003B681A687B689A627B680A4A934203D0BE
:102F30007B680C4A934203D13B681A697B681A6329
:102F40007B6801225A6100BF1437BD465DF8047BDF
:102F5000704700BF0000014000040040000800402E
:102F6000000C0040000401400040014000440140CA
:102F70000048014000180040001C004000200040B4
:102F800080B483B000AF786000BF0C37BD465DF8F9
:102F9000047B704780B483B000AF786000BF0C370B
:102FA000BD465DF8047B704780B582B000AF7860A5
:102FB0007B68002B01D1012333E07B6893F83D301F
:102FC000DBB2002B06D17B68002283F83C207868B6
:102FD00000F02BF87B68022283F83D20786800F02F
:102FE00015F97B681B681A697B681B6822F48042AC
:102FF0001A617B681B685A697B681B6822F02A0289
:103000005A617B681B68DA687B681B6842F400526F
:10301000DA607B6800221A647B68012283F83D2015
:10302000002318460837BD4680BD80B483B000AF8A
:10303000786000BF0C37BD465DF8047B704780B5F3
:103040008AB002AFF860B9603B601346FB80FB6852
:1030500093F83D30DBB2012B7CD1BB68002B02D052
:10306000FB88002B01D1012375E0FB6893F83C300D
:10307000012B01D102236EE0FB68012283F83C2082
:10308000FB6800221A64FB68122283F83D20FDF7DA
:10309000E1FE7861FB68FA881A85FB68FA885A8530
:1030A000FB689B68B3F5805F08D1FB681B69002B48
:1030B00004D10023FB61BB68BB6103E0BB68FB611B
:1030C0000023BB612AE03B6800937B6900228021DA
:1030D000F86800F044F80346002B01D003233AE0DF
:1030E000FB69002B0BD1BB691B881A46FB681B6868
:1030F000C2F308025A60BB690233BB6107E0FB6997
:103100001A78FB681B685A60FB690133FB61FB6836
:103110005B8D9BB2013B9AB2FB685A85FB685B8D65
:103120009BB2002BCFD13B6800937B6900224021EA
:10313000F86800F014F80346002B01D003230AE0DE
:10314000FB68012283F83D20FB68002283F83C20C5
:10315000002300E0022318462037BD4680BD80B51D
:1031600084B000AFF860B9603B601346FB7138E093
:10317000BB69B3F1FF3F34D0BB69002B07D0FDF72B
:1031800069FE02463B68D31ABA699A4229D2FB68A3
:103190001B68DA68FB681B6822F08002DA60FB6853
:1031A0001B68DA68FB681B6822F02002DA60FB68A3
:1031B0001B68DA68FB681B6822F48072DA60FB68BF
:1031C0001B685A69FB681B6822F001025A61FB68A0
:1031D000012283F83D20FB68002283F83C20032372
:1031E0000FE0FB681B681A68BB681340BA689A4214
:1031F0000CBF01230023DBB21A46FB799A42B7D0F9
:10320000002318461037BD4680BD00002DE9F04769
:1032100084B000AF78600023FB607B681B68DA68CD
:103220007B681B6822F00C02DA607B681B681B69F4
:10323000FB60FB6823F47C53FB607B689A697B68C6
:10324000DB691A437B681B6A1A437B68DB681A4395
:10325000FB68134343F40063FB607B681B68FA68F8
:103260001A617B681B68DB68FB60FB6823F416430C
:1032700023F00C03FB607B689A687B681B691A4328
:103280007B685B691A43FB68134343F40043FB60AC
:103290007B681B68FA68DA607B681B685A697B6820
:1032A0001B6822F440725A617B681B68C34A9342D0
:1032B00005D07B681B68C24A934240F0BD80FFF78F
:1032C000EFFBB860BB681D464FF00006A846B1464C
:1032D00018EB080349EB09049846A14618EB0508CA
:1032E00049EB06094FF000014FF000024FEAC90216
:1032F00042EA58724FEAC8018846914618EB050029
:1033000049EB06017B685B681D464FF000066B19B0
:1033100046EB06041A462346FCF762FF03460C46BA
:103320001A46A84BA3FB02235B094FEA0318BB68AC
:103330001D464FF00006A946B24619EB09034AEBB9
:103340000A049946A24619EB05094AEB060A4FF012
:1033500000014FF000024FEACA0242EA59724FEAF6
:10336000C9018946924619EB05004AEB06017B68C4
:103370005B681D464FF000066B1946EB06041A46C3
:103380002346FCF72DFF03460C461A468D4BA3FB44
:1033900002135B09642101FB03F3D31ADB00323310
:1033A000884AA2FB03235B095B0003F4F87398448B
:1033B000BB681D464FF00006A946B24619EB09034B
:1033C0004AEB0A049946A24619EB05094AEB060A9C
:1033D0004FF000014FF000024FEACA0242EA597270
:1033E0004FEAC9018946924619EB05004AEB0601EE
:1033F0007B685B681D464FF000066B1946EB0604C0
:103400001A462346FCF7ECFE03460C461A466D4B63
:10341000A3FB02135B09642101FB03F3D31ADB0056
:103420003233684AA2FB03235B0903F007027B687F
:103430001B6842449A60BBE0FFF71EFBB860BB68A4
:103440001D464FF00006A846B14618EB080349EBAD
:1034500009049846A14618EB050849EB06094FF008
:1034600000014FF000024FEAC90242EA58724FEAE7
:10347000C8018846914618EB050049EB06017B68B8
:103480005B681D464FF000066B1946EB06041A46B2
:103490002346FCF7A5FE03460C461A46494BA3FB00
:1034A00002235B094FEA0318BB681D464FF0000674
:1034B000A946B24619EB09034AEB0A049946A2460B
:1034C00019EB05094AEB060A4FF000014FF0000224
:1034D0004FEACA0242EA59724FEAC9018946924646
:1034E00019EB05004AEB06017B685B681D464FF04F
:1034F00000066B1946EB06041A462346FCF770FEDD
:1035000003460C461A462F4BA3FB02135B096421AA
:1035100001FB03F3D31ADB0032332A4AA2FB032355
:103520005B095B0003F4F8739844BB681D464FF0D9
:103530000006A946B24619EB09034AEB0A0499466C
:10354000A24619EB05094AEB060A4FF000014FF0BD
:1035500000024FEACA0242EA59724FEAC90189469B
:10356000924619EB05004AEB06017B685B681D4635
:103570004FF000066B1946EB06041A462346FCF78B
:103580002FFE03460C461A460E4BA3FB02135B09A3
:10359000642101FB03F3D31ADB003233094AA2FB97
:1035A00003235B0903F007027B681B6842449A60AF
:1035B00000BF1037BD46BDE8F08700BF00100140D6
:1035C000001401401F85EB5180B500AF01F068F990
:1035D0000023184680BD80B582B000AF1C2002F0E9
:1035E00047FB78607B68002B0AD07B6800221A605A
:1035F0007B680433184600F0C5F87B6800221A7611
:103600007B6818460837BD4680BD80B58EB000AFD8
:103610007860396000233B637B68BB620023FB62F8
:103620007B68002B09D14FF0500383F31188BFF35F
:103630006F8FBFF34F8F3B61FEE73B6803F07F4323
:10364000002B09D04FF0500383F31188BFF36F8F25
:10365000BFF34F8FFB60FEE7BB6A04337B627B6A7C
:1036600008333B6201F07AF97B6ADB687B63BB6AF3
:103670001A683B681A43BB6A1A603CE07B6B5B6864
:10368000FB617B6B1B68BB610023FB62BB6903F0C2
:103690007F437B61BB6923F07F43BB617B6903F0A0
:1036A0008063002B08D1BB6A1A68BB691340002BEA
:1036B0000BD00123FB6208E0BB6A1A68BB691340A8
:1036C000BA699A4201D10123FB62FB6A002B10D038
:1036D0007B6903F08073002B03D03A6BBB69134303
:1036E0003B63BB6A1B6843F000731946786B01F0BB
:1036F00087FBFB697B637A6B3B6A9A42BED1BB6AEC
:103700001A683B6BDB431A40BB6A1A6001F034F95C
:10371000BB6A1B6818463837BD4680BD80B586B089
:1037200000AF78607B687B617B6904333B6101F0AB
:1037300015F916E03B69DA683B6908339A4209D10A
:103740004FF0500383F31188BFF36F8FBFF34F8F98
:10375000FB60FEE73B69DB684FF00071184601F043
:103760004FFB3B691B68002BE4D17B691B7E002B60
:1037700002D1786902F03EFB01F0FEF800BF183775
:10378000BD4680BD80B483B000AF78607B6803F134
:1037900008027B685A607B684FF0FF329A607B6852
:1037A00003F108027B68DA607B6803F108027B683A
:1037B0001A617B6800221A6000BF0C37BD465DF8B5
:1037C000047B704780B483B000AF78607B680022D0
:1037D0001A6100BF0C37BD465DF8047B704780B4AA
:1037E00085B000AF786039607B685B68FB603B68E0
:1037F000FA685A60FB689A683B689A60FB689B6845
:103800003A685A60FB683A689A603B687A681A615D
:103810007B681B685A1C7B681A6000BF1437BD4662
:103820005DF8047B704780B485B000AF7860396084
:103830003B681B68BB60BB68B3F1FF3F03D17B688B
:103840001B69FB600CE07B680833FB6002E0FB68EF
:103850005B68FB60FB685B681B68BA689A42F6D2DB
:10386000FB685A683B685A603B685B683A689A60D4
:103870003B68FA689A60FB683A685A603B687A6805
:103880001A617B681B685A1C7B681A6000BF14377A
:10389000BD465DF8047B704780B485B000AF7860AA
:1038A0007B681B69FB607B685B687A6892689A60DA
:1038B0007B689B687A6852685A60FB685B687A68C4
:1038C0009A4203D17B689A68FB685A607B68002241
:1038D0001A61FB681B685A1EFB681A60FB681B684C
:1038E00018461437BD465DF8047B704780B584B038
:1038F00000AF786039607B68FB60FB68002B09D102
:103900004FF0500383F31188BFF36F8FBFF34F8FD6
:10391000BB60FEE702F092F8FB681A68FB68DB6B9D
:10392000F968096C01FB03F31A44FB689A60FB68B1
:1039300000229A63FB681A68FB685A60FB681A6881
:10394000FB68DB6B013BF968096C01FB03F31A446C
:10395000FB68DA60FB68FF2283F84420FB68FF22E3
:1039600083F845203B68002B14D1FB681B69002BB2
:103970001AD0FB681033184601F0E0F90346002B1B
:1039800012D00D4B4FF080521A60BFF34F8FBFF330
:103990006F8F09E0FB6810331846FFF7F3FEFB68F2
:1039A00024331846FFF7EEFE02F076F8012318469E
:1039B0001037BD4680BD00BF04ED00E080B58AB081
:1039C00002AFF860B9601346FB71FB68002B09D1A8
:1039D0004FF0500383F31188BFF36F8FBFF34F8F06
:1039E0003B61FEE7BB68002B02D10023FB6104E0D2
:1039F000FB68BA6802FB03F3FB61FB694C331846B2
:103A000002F036F9B861BB69002B11D0BB697B614C
:103A10007B694C337B61BB69002283F84620FA79CD
:103A2000BB69009313467A69B968F86800F005F835
:103A3000BB6918462037BD4680BD80B584B000AF55
:103A4000F860B9607A60FB70BB68002B03D1BB697A
:103A5000BA691A6002E0BB697A681A60BB69FA68E1
:103A6000DA63BB69BA681A640121B869FFF73EFFDF
:103A7000BB6900229A6400BF1037BD4680BD80B587
:103A800086B000AF786039607B68002B09D14FF0B9
:103A9000500383F31188BFF36F8FBFF34F8F3B61E8
:103AA000FEE73A687B689A4209D94FF0500383F3E6
:103AB0001188BFF36F8FBFF34F8FFB60FEE70222C9
:103AC00000217868FFF77AFF78617B69002B02D0CC
:103AD0007B693A689A637B6918461837BD4680BD92
:103AE00080B58EB000AFF860B9607A603B600023AB
:103AF0007B63FB683B633B6B002B09D14FF05003AA
:103B000083F31188BFF36F8FBFF34F8F7B62FEE7A4
:103B1000BB68002B03D13B6B1B6C002B01D1012335
:103B200000E00023002B09D14FF0500383F31188EC
:103B3000BFF36F8FBFF34F8F3B62FEE73B68022BF3
:103B400003D13B6BDB6B012B01D1012300E0002390
:103B5000002B09D14FF0500383F31188BFF36F8F0F
:103B6000BFF34F8FFB61FEE701F034FB0346002BF0
:103B700002D17B68002B01D1012300E00023002B40
:103B800009D14FF0500383F31188BFF36F8FBFF358
:103B90004F8FBB61FEE701F051FF3B6B9A6B3B6BB4
:103BA000DB6B9A4202D33B68022B46D13B6B9B6B8B
:103BB000FB623A68B968386B00F0E5FAB8623B6BB3
:103BC0009B6C002B15D03B68022B02D1FB6A002BAB
:103BD0002FD13968386B00F047FC0346002B28D002
:103BE0004A4B4FF080521A60BFF34F8FBFF36F8F75
:103BF0001FE03B6B5B6A002B10D03B6B24331846F5
:103C000001F09CF80346002B13D0404B4FF080523C
:103C10001A60BFF34F8FBFF36F8F0AE0BB6A002BB0
:103C200007D03A4B4FF080521A60BFF34F8FBFF36B
:103C30006F8F01F031FF012363E07B68002B03D11C
:103C400001F02AFF00235CE07B6B002B06D107F11B
:103C50001003184601F05AF901237B6301F01CFFA1
:103C600000F07CFE01F0EAFE3B6B93F844305BB25F
:103C7000B3F1FF3F03D13B6B002283F844203B6B41
:103C800093F845305BB2B3F1FF3F03D13B6B0022A9
:103C900083F8452001F000FF3A1D07F1100311469B
:103CA000184601F049F90346002B24D1386B00F087
:103CB00070FB0346002B18D03B6B10337A6811461B
:103CC000184601F017F8386B00F0EDFA00F054FEDA
:103CD0000346002B7FF45FAF0C4B4FF080521A600D
:103CE000BFF34F8FBFF36F8F55E7386B00F0DBFAF0
:103CF00000F042FE4FE7386B00F0D5FA00F03CFED2
:103D0000002318463837BD4680BD00BF04ED00E0F3
:103D100080B58CB000AFF860B9607A600023FB62B8
:103D2000FB68BB62BB6A002B09D14FF0500383F3E1
:103D30001188BFF36F8FBFF34F8F3B62FEE7BB6805
:103D4000002B03D1BB6A1B6C002B01D1012300E0C7
:103D50000023002B09D14FF0500383F31188BFF3E8
:103D60006F8FBFF34F8FFB61FEE701F033FA03461D
:103D7000002B02D17B68002B01D1012300E000233E
:103D8000002B09D14FF0500383F31188BFF36F8FDD
:103D9000BFF34F8FBB61FEE701F050FEBB6A9B6B28
:103DA0007B627B6A002B1FD0B968B86A00F055FAB5
:103DB0007B6A5A1EBB6A9A63BB6A1B69002B0FD0D1
:103DC000BB6A1033184600F0B9FF0346002B07D03A
:103DD0003C4B4FF080521A60BFF34F8FBFF36F8F91
:103DE00001F05AFE012369E07B68002B03D101F04A
:103DF00053FE002362E0FB6A002B06D107F110039B
:103E0000184601F083F80123FB6201F045FE00F043
:103E1000A5FD01F013FEBB6A93F844305BB2B3F129
:103E2000FF3F03D1BB6A002283F84420BB6A93F8AA
:103E300045305BB2B3F1FF3F03D1BB6A002283F888
:103E4000452001F029FE3A1D07F1100311461846DE
:103E500001F072F80346002B23D1B86A00F083FA10
:103E60000346002B17D0BB6A24337A6811461846E4
:103E700000F040FFB86A00F016FA00F07DFD03463E
:103E8000002B89D10F4B4FF080521A60BFF34F8F38
:103E9000BFF36F8F80E7B86A00F005FA00F06CFDA1
:103EA0007AE7B86A00F0FFF900F066FDB86A00F042
:103EB0005AFA0346002B3FF46FAF00231846303701
:103EC000BD4680BD04ED00E080B58EB000AF7860E7
:103ED000396000237B637B68FB6200233B63FB6AE2
:103EE000002B09D14FF0500383F31188BFF36F8F7C
:103EF000BFF34F8F3B62FEE7FB6A1B6C002B09D0C0
:103F00004FF0500383F31188BFF36F8FBFF34F8FD0
:103F1000FB61FEE701F05EF90346002B02D13B682E
:103F2000002B01D1012300E00023002B09D14FF029
:103F3000500383F31188BFF36F8FBFF34F8FBB61C3
:103F4000FEE701F07BFDFB6A9B6BBB62BB6A002B4B
:103F500024D0BB6A5A1EFB6A9A63FB6A1B68002B5B
:103F600004D101F0F1FA0246FB6A9A60FB6A1B6910
:103F7000002B0FD0FB6A1033184600F0DFFE03461B
:103F8000002B07D0534B4FF080521A60BFF34F8F76
:103F9000BFF36F8F01F080FD012396E03B68002B9B
:103FA00010D13B6B002B09D04FF0500383F31188E5
:103FB000BFF36F8FBFF34F8F7B61FEE701F06CFDA6
:103FC000002382E07B6B002B06D107F10C0318461F
:103FD00000F09CFF01237B6301F05EFD00F0BEFC5E
:103FE00001F02CFDFB6A93F844305BB2B3F1FF3F64
:103FF00003D1FB6A002283F84420FB6A93F8453022
:104000005BB2B3F1FF3F03D1FB6A002283F8452086
:1040100001F042FD3A4607F10C031146184600F044
:104020008BFF0346002B32D1F86A00F09CF903465F
:10403000002B26D0FB6A1B68002B09D101F0FEFC87
:10404000FB6A9B68184601F0E3F8386301F024FD31
:10405000FB6A24333A681146184600F04BFEF86AB2
:1040600000F021F900F088FC0346002B7FF469AFD3
:10407000184B4FF080521A60BFF34F8FBFF36F8F12
:104080005FE7F86A00F00FF900F076FC59E7F86A8C
:1040900000F009F900F070FCF86A00F064F90346DA
:1040A000002B3FF44EAF3B6B002B0DD001F0C6FC54
:1040B000F86A00F050F87862FB6A9B68796A1846E3
:1040C00001F0AAF901F0E8FC002318463837BD4694
:1040D00080BD00BF04ED00E080B584B000AF786023
:1040E0007B68002B09D14FF0500383F31188BFF395
:1040F0006F8FBFF34F8FBB60FEE701F09FFC7B68C3
:104100009B6BFB6001F0C8FCFB6818461037BD468E
:1041100080BD80B584B000AF78607B68FB60FB68D1
:10412000002B09D14FF0500383F31188BFF36F8F39
:10413000BFF34F8FBB60FEE7F86800F06BF9FB68D8
:1041400093F84630002B02D1F86801F053FE00BF0F
:104150001037BD4680BD80B485B000AF78607B6805
:104160005B6A002B06D07B681B6B1B68C3F10703DF
:10417000FB6001E00023FB60FB6818461437BD4676
:104180005DF8047B704780B586B000AFF860B96019
:104190007A6000237B61FB689B6B3B61FB681B6C57
:1041A000002B0DD1FB681B68002B4DD1FB689B6871
:1041B000184601F0ADF87861FB6800229A6043E090
:1041C0007B68002B19D1FB685868FB681B6C1A468A
:1041D000B96809F0BEFAFB685A68FB681B6C1A44A0
:1041E000FB685A60FB685A68FB689B689A422BD34D
:1041F000FB681A68FB685A6026E0FB68D868FB68B1
:104200001B6C1A46B96809F0A4FAFB68DA68FB6807
:104210001B6C5B421A44FB68DA60FB68DA68FB6877
:104220001B689A4207D2FB689A68FB681B6C5B426A
:104230001A44FB68DA607B68022B05D13B69002BCE
:1042400002D03B69013B3B613B695A1CFB689A63A6
:104250007B6918461837BD4680BD80B582B000AF77
:10426000786039607B681B6C002B18D07B68DA683B
:104270007B681B6C1A447B68DA607B68DA687B6851
:104280009B689A4203D37B681A687B68DA607B6814
:10429000D9687B681B6C1A46386809F05AFA00BF67
:1042A0000837BD4680BD80B584B000AF786001F0AE
:1042B000C5FB7B6893F84530FB731FE07B689B6C04
:1042C000002B09D00021786800F0CEF80346002BBF
:1042D00010D000F091FE0DE07B685B6A002B12D0DD
:1042E0007B682433184600F029FD0346002B01D0DB
:1042F00000F082FEFB7B013BDBB2FB7397F90F30D2
:10430000002BDBDC00E000BF7B68FF2283F8452048
:1043100001F0C2FB01F092FB7B6893F84430BB7361
:1043200011E07B681B69002B12D07B6810331846A4
:1043300000F004FD0346002B01D000F05DFEBB7BC6
:10434000013BDBB2BB7397F90E30002BE9DC00E0D8
:1043500000BF7B68FF2283F8442001F09DFB00BF73
:104360001037BD4680BD80B584B000AF786001F0E5
:1043700065FB7B689B6B002B02D10123FB6001E096
:104380000023FB6001F088FBFB6818461037BD4630
:1043900080BD80B584B000AF786001F04FFB7B68D2
:1043A0009A6B7B68DB6B9A4202D10123FB6001E0D0
:1043B0000023FB6001F070FBFB6818461037BD4618
:1043C00080BD000080B485B000AF78603960002304
:1043D000FB6014E00E4AFB6852F83330002B0BD11F
:1043E0000B49FB683A6841F83320094AFB68DB0057
:1043F00013447A685A6005E0FB680133FB60FB6890
:10440000072BE7D900BF1437BD465DF8047B704722
:10441000104B002080B485B000AF78600023FB60B3
:1044200016E0104AFB68DB0013445B687A689A4226
:104430000BD10C4AFB68002142F83310094AFB6893
:10444000DB00134400225A6005E0FB680133FB6087
:10445000FB68072BE5D900BF1437BD465DF8047B28
:10446000704700BF104B002080B588B000AF786067
:1044700039607B689B6CBB610023FB61BB69002BCF
:1044800009D14FF0500383F31188BFF36F8FBFF34F
:104490004F8F3B61FEE7BB699A6BBB69DB6B9A424E
:1044A00009D34FF0500383F31188BFF36F8FBFF32D
:1044B0004F8FFB60FEE7BB699A6BBB69DB6B9A426F
:1044C00025D2BB6993F84530FB753B1D3A68194608
:1044D000B869FFF758FEF86197F91730B3F1FF3F5D
:1044E0000ED1BB695B6A002B11D0BB69243318461F
:1044F00000F024FC0346002B09D00123FB6106E0F9
:10450000FB7D0133DBB25AB2BB6983F84520FB69FE
:1045100018462037BD4680BD80B58EB004AFF86028
:10452000B9607A603B607B6B002B09D14FF0500380
:1045300083F31188BFF36F8FBFF34F8F3B62FEE7AA
:10454000BB6B002B09D14FF0500383F31188BFF3ED
:104550006F8FBFF34F8FFB61FEE754233B613B69D5
:10456000542B09D04FF0500383F31188BFF36F8FA2
:10457000BFF34F8FBB61FEE73B69BB6B002B1ED0C7
:104580007B6B002B1BD0BB6B7B627B6A7A6B1A63E5
:104590007B6A022283F85120002303937B6A0293F3
:1045A00007F1140301933B6B00933B687A68B96889
:1045B000F86800F050F8786A00F0D4F801E00023C1
:1045C0007B617B6918462837BD4680BD80B58CB0BD
:1045D00004AFF860B9603B601346FB80FB889B002A
:1045E000184601F045FB78617B69002B0ED0542002
:1045F00001F03EFBF861FB69002B03D0FB697A698F
:104600001A6305E0786901F0F5FB01E00023FB6126
:10461000FB69002B17D0FB69002283F85120FA8830
:1046200000230393FB690293FB6A0193BB6A009327
:104630003B68B968F86800F00EF8F86900F092F885
:104640000123BB6102E04FF0FF33BB61BB69184639
:104650002037BD4680BD80B588B000AFF860B96036
:104660007A603B603B6B1A6B7B6803F18043013BD4
:104670009B001344BB61BB6923F00703BB61BB69AB
:1046800003F00703002B09D04FF0500383F3118888
:10469000BFF36F8FBFF34F8F7B61FEE7BB68002BCB
:1046A0001FD00023FB6112E0BA68FB69134419783C
:1046B0003A6BFB69134434330A461A70BA68FB69D3
:1046C00013441B78002B06D0FB690133FB61FB69A7
:1046D0000F2BE9D900E000BF3B6B002283F8432099
:1046E00003E03B6B002283F83420BB6A062B01D920
:1046F0000623BB623B6BBA6ADA623B6BBA6A5A64E6
:104700003B6B00229A643B6B04331846FFF75AF860
:104710003B6B18331846FFF755F83B6B3A6B1A6141
:10472000BB6AC3F107023B6B9A613B6B3A6B5A62FF
:104730003B6B0022DA643B6B002283F850203A681E
:10474000F968B86901F050F802463B6B1A60FB6AE1
:10475000002B02D0FB6A3A6B1A6000BF2037BD46BF
:1047600080BD000080B582B000AF786001F066F9CE
:104770002A4B1B680133294A1360294B1B68002B05
:1047800009D1274A7B681360244B1B68012B10D189
:1047900000F056FC0DE0234B1B68002B09D1204B89
:1047A0001B68DA6A7B68DB6A9A4202D81C4A7B681B
:1047B00013601D4B1B6801331B4A13607B68DB6A67
:1047C00001229A40194B1B681343184A13607B68F7
:1047D000DA6A13469B0013449B00154A1A447B680F
:1047E000043319461046FEF7FAFF01F055F90D4B58
:1047F0001B68002B0ED00A4B1B68DA6A7B68DB6AE9
:104800009A4207D20B4B4FF080521A60BFF34F8F82
:10481000BFF36F8F00BF0837BD4680BD2004002066
:10482000200300202C0400203C0400202804002049
:104830002403002004ED00E080B584B000AF786070
:104840000023FB607B68002B16D0134B1B68002BEA
:1048500009D04FF0500383F31188BFF36F8FBFF37C
:104860004F8FBB60FEE700F079F80021786800F018
:1048700055FF00F081F8F860FB68002B07D1074B6B
:104880004FF080521A60BFF34F8FBFF36F8F00BF9E
:104890001037BD4680BD00BF4804002004ED00E095
:1048A00080B58AB004AF0023BB6000237B603A462A
:1048B000391D07F108031846FBF712FE39687B68BB
:1048C000BA68029201930023009300230A461D490F
:1048D0001D48FFF721FE02461C4B1A601B4B1B684C
:1048E000002B02D001237B6101E000237B617B6907
:1048F000012B15D14FF0500383F31188BFF36F8F55
:10490000BFF34F8F3B61124B4FF0FF321A60114BD8
:1049100001221A60104B00221A6000F0F1FF0DE036
:104920007B69B3F1FF3F09D14FF0500383F3118846
:10493000BFF36F8FBFF34F8FFB60FEE700BF1837E9
:10494000BD4680BD80D900081150000844040020F5
:10495000400400202C0400202404002080B400AF78
:10496000044B1B680133034A136000BFBD465DF86A
:10497000047B70474804002080B584B000AF00235A
:10498000FB600023BB60414B1B68002B09D14FF03B
:10499000500383F31188BFF36F8FBFF34F8F3B60DA
:1049A000FEE701F04BF8394B1B68013B374A1360B7
:1049B000364B1B68002B61D1354B1B68002B5DD03B
:1049C0002EE0344BDB68DB68FB60FB68183318466D
:1049D000FEF762FFFB6804331846FEF75DFFFB68D5
:1049E000DB6A01229A402C4B1B6813432A4A13604E
:1049F000FB68DA6A13469B0013449B00274A1A445B
:104A0000FB68043319461046FEF7E9FEFB68DA6AD4
:104A1000234B1B68DB6A9A4202D3224B01221A60A5
:104A20001C4B1B68002BCCD1FB68002B01D000F085
:104A3000A1FB1D4B1B687B607B68002B10D000F036
:104A400047F80346002B02D0164B01221A607B6800
:104A5000013B7B607B68002BF1D1134B00221A6075
:104A6000104B1B68002B09D00123BB600F4B4FF08C
:104A700080521A60BFF34F8FBFF36F8F01F00CF8B5
:104A8000BB6818461037BD4680BD00BF48040020F3
:104A900020040020E003002028040020240300203C
:104AA00020030020340400203004002004ED00E046
:104AB00080B483B000AF054B1B687B607B681846F1
:104AC0000C37BD465DF8047B704700BF240400200E
:104AD00080B586B000AF00237B614E4B1B68002B76
:104AE00040F087804C4B1B6801333B614A4A3B696D
:104AF00013603B69002B1FD1484B1B681B68002BC0
:104B000009D04FF0500383F31188BFF36F8FBFF3C9
:104B10004F8F3B60FEE7414B1B68FB60404B1B68BF
:104B20003E4A13603E4AFB6813603E4B1B680133EC
:104B30003C4A136000F01EFB3B4B1B683A699A42EB
:104B400048D3364B1B681B68002B04D1364B4FF003
:104B5000FF321A603EE0314B1B68DB68DB68BB60EC
:104B6000BB685B687B603A697B689A4203D22E4AD5
:104B70007B6813602EE0BB6804331846FEF78CFE9A
:104B8000BB689B6A002B04D0BB6818331846FEF73D
:104B900083FEBB68DB6A01229A40244B1B681343E7
:104BA000224A1360BB68DA6A13469B0013449B00D9
:104BB0001F4A1A44BB68043319461046FEF70FFE1D
:104BC000BB68DA6A1B4B1B68DB6A9A42B9D30123C4
:104BD0007B61B6E7174B1B68DA6A154913469B00E1
:104BE00013449B000B441B68012B07D901237B61F5
:104BF00004E0114B1B6801330F4A13600F4B1B6815
:104C0000002B01D001237B617B6918461837BD4614
:104C100080BD00BF4804002024040020D8030020E9
:104C2000DC03002038040020400400202804002079
:104C3000240300202003002030040020340400203E
:104C400080B487B000AF264B1B68002B03D0254BE8
:104C500001221A603EE0234B00221A60224B1B689F
:104C6000FB60FB68B3FA83F3FB72FB7AC3F11F03AB
:104C70007B611E497A6913469B0013449B000B44D9
:104C80001B68002B09D14FF0500383F31188BFF349
:104C90006F8FBFF34F8F7B60FEE77A6913469B00EF
:104CA00013449B00114A13443B613B695B685A689B
:104CB0003B695A603B695A683B6908339A4204D1A0
:104CC0003B695B685A683B695A603B695B68DB68B3
:104CD000074A136000BF1C37BD465DF8047B704770
:104CE000480400203404002028040020240300206D
:104CF0002003002080B584B000AF786039607B6805
:104D0000002B09D14FF0500383F31188BFF36F8F4D
:104D1000BFF34F8FFB60FEE7074B1B681833194644
:104D20007868FEF780FD0121386800F0F7FC00BFCD
:104D30001037BD4680BD00BF2003002080B586B07F
:104D400000AF78607B68DB68DB683B613B69002B08
:104D500009D14FF0500383F31188BFF36F8FBFF376
:104D60004F8FFB60FEE73B6918331846FEF794FD52
:104D70001D4B1B68002B1CD13B6904331846FEF702
:104D80008BFD3B69DB6A01229A40184B1B68134379
:104D9000164A13603B69DA6A13469B0013449B0072
:104DA000134A1A443B69043319461046FEF717FDAF
:104DB00005E03B69183319460E48FEF710FD3B69C4
:104DC000DA6A0D4B1B68DB6A9A4205D901237B61C5
:104DD0000A4B01221A6001E000237B617B691846BF
:104DE0001837BD4680BD00BF4804002028040020BD
:104DF00024030020E00300202003002034040020CE
:104E000080B586B000AF78603960284B1B68002BF6
:104E100009D14FF0500383F31188BFF36F8FBFF3B5
:104E20004F8F3B61FEE73B6843F000427B681A60AE
:104E30007B68DB687B617B69002B09D14FF05003F5
:104E400083F31188BFF36F8FBFF34F8FFB60FEE7D3
:104E50007868FEF721FD7B6904331846FEF71CFDD8
:104E60007B69DB6A01229A40114B1B681343104A8D
:104E700013607B69DA6A13469B0013449B000D4A5A
:104E80001A447B69043319461046FEF7A8FC7B6977
:104E9000DA6A094B1B68DB6A9A4202D9074B012286
:104EA0001A6000BF1837BD4680BD00BF480400200F
:104EB00028040020240300202003002034040020C4
:104EC00080B584B000AF78607B68002B09D14FF0CB
:104ED000500383F31188BFF36F8FBFF34F8FFB60D5
:104EE000FEE700F0ABFD074B1A687B681A60064BC3
:104EF0001A687B685A6000F0CFFD00BF1037BD46CE
:104F000080BD00BF380400202404002080B483B09A
:104F100000AF7860064B1A687B681A60054B1A6808
:104F20007B685A6000BF0C37BD465DF8047B704754
:104F3000380400202404002080B588B000AF7860D9
:104F400039607B68002B09D14FF0500383F311883F
:104F5000BFF36F8FBFF34F8F3B61FEE73B68002BC2
:104F600009D14FF0500383F31188BFF36F8FBFF364
:104F70004F8FFB60FEE700F061FD1D4B1B68BB61BE
:104F80007B685B68BA69D31A7B613B681B68B3F1C5
:104F9000FF3F02D10023FB6123E07B681A68154BB9
:104FA0001B689A4207D07B685B68BA699A4202D351
:104FB0000123FB6115E03B681B687A699A420BD2BA
:104FC0003B681A687B69D21A3B681A607868FFF7F9
:104FD0009DFF0023FB6104E03B6800221A6001236F
:104FE000FB6100F059FDFB6918462037BD4680BDC6
:104FF000240400203804002080B400AF034B0122B9
:105000001A6000BFBD465DF8047B70473404002081
:1050100080B582B000AF786000F052F8064B1B6894
:10502000012BF9D9054B4FF080521A60BFF34F8F17
:10503000BFF36F8FF0E700BF2403002004ED00E012
:1050400080B582B000AF00237B600CE07A68134625
:105050009B0013449B00124A13441846FEF792FB30
:105060007B6801337B607B68062BEFD90D48FEF728
:1050700089FB0D48FEF786FB0C48FEF783FB0C48C6
:10508000FEF780FB0B48FEF77DFB0B4B054A1A60D1
:105090000A4B054A1A6000BF0837BD4680BD00BFF5
:1050A00024030020B0030020C4030020E0030020FC
:1050B000F40300200C040020D8030020DC030020AF
:1050C00080B582B000AF19E000F0B8FC0F4BDB6890
:1050D000DB687B607B6804331846FEF7DDFB0C4B16
:1050E0001B68013B0A4A13600A4B1B68013B094AD3
:1050F000136000F0D1FC786800F00EF8054B1B68D7
:10510000002BE1D100BF0837BD4680BDF40300206D
:10511000200400200804002080B584B000AF78602F
:105120007B6893F85130002B08D17B681B6B1846C5
:1051300000F060FE786800F05DFE17E07B6893F891
:105140005130012B03D1786800F054FE0EE07B68EB
:1051500093F85130022B09D04FF0500383F311889C
:10516000BFF36F8FBFF34F8FFB60FEE700BF1037B9
:10517000BD4680BD80B483B000AF0C4B1B681B687C
:10518000002B04D10A4B4FF0FF321A6008E0074BA6
:105190001B68DB68DB687B607B685B68044A1360C4
:1051A00000BF0C37BD465DF8047B7047D803002074
:1051B0004004002080B483B000AF054B1B687B60C7
:1051C0007B6818460C37BD465DF8047B704700BF0E
:1051D0002003002080B483B000AF0B4B1B68002B72
:1051E00002D101237B6008E0084B1B68002B02D131
:1051F00002237B6001E000237B607B6818460C374C
:10520000BD465DF8047B70472C0400204804002054
:1052100080B584B000AF78607B68BB600023FB6022
:105220007B68002B69D0BB68DA6A364B1B68DB6A87
:105230009A4259D2BB689B69002B06DB314B1B6835
:10524000DB6AC3F10702BB689A61BB685969BB6836
:10525000DA6A13469B0013449B002B4A134499427D
:105260003AD1BB6804331846FEF716FB0346002B01
:1052700015D1BB68DA6A244913469B0013449B008E
:105280000B441B68002B0AD1BB68DB6A012202FABF
:1052900003F3DA431D4B1B6813401C4A1360194B80
:1052A0001B68DA6ABB68DA62BB68DB6A01229A4073
:1052B000164B1B681343154A1360BB68DA6A134622
:1052C0009B0013449B00104A1A44BB6804331946E0
:1052D0001046FEF784FA04E00A4B1B68DA6ABB68E2
:1052E000DA620123FB6008E0BB685A6C054B1B685F
:1052F000DB6A9A4201D20123FB60FB681846103733
:10530000BD4680BD20030020240300202804002087
:1053100080B586B000AF78607B683B6100237B611D
:105320007B68002B6CD0394B1B683A699A4209D0D4
:105330004FF0500383F31188BFF36F8FBFF34F8F8C
:10534000FB60FEE73B699B6C002B09D14FF05003DB
:1053500083F31188BFF36F8FBFF34F8FBB60FEE7FE
:105360003B699B6C5A1E3B699A643B69DA6A3B69EC
:105370005B6C9A4244D03B699B6C002B40D13B69EB
:1053800004331846FEF788FA0346002B15D13B6913
:10539000DA6A1F4913469B0013449B000B441B68A9
:1053A000002B0AD13B69DB6A012202FA03F3DA43DC
:1053B000184B1B681340174A13603B695A6C3B69D2
:1053C000DA623B69DB6AC3F107023B699A613B69B8
:1053D000DB6A01229A400F4B1B6813430D4A13608E
:1053E0003B69DA6A13469B0013449B00084A1A443F
:1053F0003B69043319461046FEF7F1F901237B613E
:105400007B6918461837BD4680BD00BF20030020C9
:10541000240300202804002080B588B000AF786005
:1054200039607B68BB6101237B617B68002B00F0E6
:105430008180BB699B6C002B09D14FF0500383F333
:105440001188BFF36F8FBFF34F8FFB60FEE7BB691F
:105450005B6C3A689A4202D93B68FB6102E0BB6927
:105460005B6CFB61BB69DB6AFA699A4262D0BB691B
:105470009B6C7A699A425DD1304B1B68BA699A423B
:1054800009D14FF0500383F31188BFF36F8FBFF33F
:105490004F8FBB60FEE7BB69DB6A3B61BB69FA69A2
:1054A000DA62BB699B69002B04DBFB69C3F107026D
:1054B000BB699A61BB6959693A6913469B001344F9
:1054C0009B001F4A1344994234D1BB6904331846E8
:1054D000FEF7E2F90346002B15D1BB69DA6A1849D9
:1054E00013469B0013449B000B441B68002B0AD1FE
:1054F000BB69DB6A012202FA03F3DA43114B1B6832
:105500001340104A1360BB69DB6A01229A400D4BBD
:105510001B6813430B4A1360BB69DA6A13469B008E
:1055200013449B00064A1A44BB69043319461046CB
:10553000FEF755F900BF2037BD4680BD200300208F
:10554000240300202804002080B400AF074B1B6810
:10555000002B04D0054B1B689A6C01329A64034BF4
:105560001B681846BD465DF8047B70472003002089
:1055700080B584B000AF7860396000F05FFA1E4BF0
:105580001B68DB6C002B13D11B4B1B68012283F8BB
:1055900050203B68002B0BD00121386800F0BEF88A
:1055A000164B4FF080521A60BFF34F8FBFF36F8FCF
:1055B00000F072FA00F042FA0F4B1B68DB6CFB60E4
:1055C000FB68002B0CD07B68002B04D00A4B1B68B7
:1055D0000022DA6404E0084B1B68FA68013ADA64D6
:1055E000054B1B68002283F8502000F055FAFB6839
:1055F00018461037BD4680BD2003002004ED00E0B2
:1056000080B58AB000AF786039607B68002B09D123
:105610004FF0500383F31188BFF36F8FBFF34F8FA9
:10562000BB61FEE700F0E6FA7B687B62EFF3118274
:105630004FF0500383F31188BFF36F8FBFF34F8F89
:105640007A613B617B693B627B6A93F85030FB7700
:105650007B6A022283F850207B6ADB6C5A1C7B6ACF
:10566000DA64FB7F012B44D17B6A9B6A002B09D053
:105670004FF0500383F31188BFF36F8FBFF34F8F49
:10568000FB60FEE71F4B1B68002B1CD17B6A0433B9
:105690001846FEF701F97B6ADB6A01229A401A4B31
:1056A0001B681343184A13607B6ADA6A13469B002F
:1056B00013449B00154A1A447B6A0433194610466A
:1056C000FEF78DF805E07B6A183319461048FEF79F
:1056D00086F87B6ADA6A0F4B1B68DB6A9A4208D944
:1056E0003B68002B02D03B6801221A600A4B012262
:1056F0001A603B6ABB60BB6883F3118800BF283720
:10570000BD4680BD4804002028040020240300205A
:10571000E0030020200300203404002080B584B082
:1057200000AF78603960294B1B68FB60284B1B6811
:1057300004331846FEF7B0F80346002B0BD1244B78
:105740001B68DB6A012202FA03F3DA43214B1B6870
:105750001340204A13607B68B3F1FF3F0AD13B68D6
:10576000002B07D01A4B1B68043319461A48FEF762
:1057700036F826E0FA687B681344BB60144B1B685C
:10578000BA685A60BA68FB689A4209D2134B1A6821
:105790000F4B1B68043319461046FEF744F810E01F
:1057A0000F4B1A680A4B1B68043319461046FEF764
:1057B0003AF80C4B1B68BA689A4202D2094ABB6895
:1057C000136000BF1037BD4680BD00BF2404002019
:1057D00020030020280400200C040020DC0300200B
:1057E000D80300204004002080B485B000AFF860EA
:1057F000B9607A60FB68043BFB60FB684FF0807225
:105800001A60FB68043BFB60BB6823F00102FB6885
:105810001A60FB68043BFB600C4AFB681A60FB687B
:10582000143BFB607A68FB681A60FB68043BFB6012
:10583000FB686FF002021A60FB68203BFB60FB68AC
:1058400018461437BD465DF8047B70475158000870
:1058500080B485B000AF00237B60114B1B68B3F1AF
:10586000FF3F09D04FF0500383F31188BFF36F8FD0
:10587000BFF34F8FFB60FEE74FF0500383F31188B7
:10588000BFF36F8FBFF34F8FBB6000BF7B68002BF0
:10589000FCD000BF1437BD465DF8047B704700BFE5
:1058A00018000020000000000000000000000000C0
:1058B000074B19680868B0E8F04F80F30988BFF318
:1058C0006F8F4FF0000080F311887047AFF30080B6
:1058D0002003002000BF00BF08480068006880F374
:1058E00008884FF0000080F3148862B661B6BFF3F9
:1058F0004F8FBFF36F8F00DF00BF00BF08ED00E0E8
:1059000080B586B000AF444B1B68444A934209D12E
:105910004FF0500383F31188BFF36F8FBFF34F8FA6
:105920003B61FEE73C4B1B683D4A934209D14FF077
:10593000500383F31188BFF36F8FBFF34F8FFB606A
:10594000FEE7384B7B617B691B78DBB27B607B6950
:10595000FF221A707B691B78DBB2FB70FB78DBB22D
:1059600003F05003DAB2304B1A70304B07221A6042
:1059700009E02E4B1B68013B2C4A1360FB78DBB21D
:105980005B00DBB2FB70FB78DBB203F08003802BA3
:10599000EFD0264B1B68C3F10703042B09D04FF04F
:1059A000500383F31188BFF36F8FBFF34F8FBB603A
:1059B000FEE71E4B1B681B021C4A13601B4B1B6837
:1059C00003F4E063194A13607B68DAB27B691A70EA
:1059D000174B1B68164A43F470031360144B1B6883
:1059E000134A43F07043136000F0D6F8114B0022C5
:1059F0001A6000F0F5F8104B1B680F4A43F0404363
:105A00001360FFF769FFFFF71BF9FFF721FF002382
:105A100018461837BD4680BD00ED00E071C20F4149
:105A200070C20F4100E400E04C040020500400204C
:105A300020ED00E01800002034EF00E080B483B0D7
:105A400000AF4FF0500383F31188BFF36F8FBFF3A4
:105A50004F8F7B600E4B1B6801330D4A13600C4B5C
:105A60001B68012B0ED10B4B1B68DBB2002B09D03E
:105A70004FF0500383F31188BFF36F8FBFF34F8F45
:105A80003B60FEE700BF0C37BD465DF8047B704706
:105A90001800002004ED00E080B483B000AF114B8B
:105AA0001B68002B09D14FF0500383F31188BFF31B
:105AB0006F8FBFF34F8F7B60FEE70A4B1B68013B84
:105AC000084A1360074B1B68002B04D100233B607E
:105AD0003B6883F3118800BF0C37BD465DF8047B3B
